:100000000C942A000C94020A0C943C0A0C94760A74
:100010000C9447000C9447000C9447000C94470044
:100020000C9447000C9447000C94E2070C9497073B
:100030000C9447000C9447000C9447000C94470024
:100040000C9447000C9447000C9447000C94470014
:100050000C94470011241FBECFE5D8E0DEBFCDBF12
:1000600012E0A0E6B0E0E8E6FBE402C005900D92E5
:10007000A033B107D9F712E0A0E3B2E001C01D92AE
:10008000A435B107E1F70E94D81F0C94B2250C9457
:100090000000EF92FF920F931F937B018C0120E0F1
:1000A00030E040E05FE40E94F50388238CF0C80153
:1000B000B70120E030E040E05FE40E94C1010E940F
:1000C00055049B01AC01205030404040504806C0D0
:1000D000C801B7010E9455049B01AC01B901CA01D6
:1000E0001F910F91FF90EF900895A0E0B0E0EBE733
:1000F000F0E00C947B25DC012B01FA019C919230FD
:1001000008F439C1EB018881823008F433C194309E
:1001100069F4843009F02FC111969C91119789815F
:10012000981709F428C1ADE0B1E025C1843009F485
:1001300021C18230A9F4923009F01DC19A01AD01AC
:1001400088E0EA010990AE01E90109929E0181501F
:10015000C1F7E201898111969C918923818308C1AD
:10016000923009F407C112962D903C901397EB0141
:100170008A819B811496AD90BD90CD90DC901797AD
:10018000EC80FD800E811F819101281B390BB90184
:1001900037FF04C066277727621B730B6032710537
:1001A0000CF061C0121613066CF537014801062EDB
:1001B00004C096948794779467940A94D2F721E0C8
:1001C00030E040E050E004C0220F331F441F551FB1
:1001D0006A95D2F721503040404050402E213F21B7
:1001E00040235123211531054105510521F021E01E
:1001F00030E040E050E079018A01E628F72808293C
:1002000019293CC0232BD1F1260E371E350146019A
:10021000062E04C096948794779467940A94D2F734
:1002200021E030E040E050E004C0220F331F441FC3
:10023000551F6A95D2F721503040404050402A2146
:100240003B214C215D21211531054105510521F04E
:1002500021E030E040E050E059016A01A628B728CB
:10026000C828D9280BC0821593052CF01C01AA249C
:10027000BB24650103C0EE24FF24870111969C91E5
:10028000D20111968C91981709F445C0992339F041
:10029000A80197012A193B094C095D0906C0A6016E
:1002A00095012E193F09400B510B57FD08C01182D3
:1002B0003382228224833583468357831DC081E0A5
:1002C00081833382228288279927DC01821B930B4A
:1002D000A40BB50B84839583A683B7830DC0220F2F
:1002E000331F441F551F24833583468357838281E0
:1002F000938101979383828324813581468157813D
:10030000DA01C9010197A109B1098F5F9F4FAF4F72
:10031000BF4328F30BC0918333822282EA0CFB1C7B
:100320000C1D1D1DE482F5820683178383E0808304
:10033000248135814681578157FF1AC0C901AA27F8
:1003400097FDA095BA2F81709070A070B0705695EF
:10035000479537952795822B932BA42BB52B848318
:100360009583A683B7838281938101969383828349
:10037000DF0101C0D201CD01CDB7DEB7E2E10C94BF
:100380009725A0E2B0E0E7ECF1E00C9487256983C3
:100390007A838B839C832D833E834F835887E9E048
:1003A000EE2EF12CEC0EFD1ECE010196B7010E943F
:1003B00046068E010F5E1F4FCE010596B8010E94C2
:1003C00046068A8991E089278A8BC701B801AE0168
:1003D000475E5F4F0E9475000E947105A096E6E09F
:1003E0000C94A325A0E2B0E0E8EFF1E00C9487259F
:1003F00069837A838B839C832D833E834F835887C5
:10040000F9E0EF2EF12CEC0EFD1ECE010196B701A6
:100410000E9446068E010F5E1F4FCE010596B80161
:100420000E944606C701B801AE01475E5F4F0E94B9
:1004300075000E947105A096E6E00C94A325A0E249
:10044000B0E0E5E2F2E00C947B2569837A838B834C
:100450009C832D833E834F835887CE010196BE0136
:10046000675F7F4F0E944606CE010596BE016F5E14
:100470007F4F0E9446069985923088F089898230A4
:10048000C8F0943019F4823051F404C0843029F457
:10049000923081F48DE091E0C6C0923049F420E0C2
:1004A0009A858A89981321E02A87CE010996BBC0D4
:1004B000823049F420E09A858A89981321E02A8BBA
:1004C000CE014196B0C02D843E844F8458886D88FB
:1004D0007E888F88988CEE24FF248701AA24BB2471
:1004E000650140E050E060E070E0E0E0F0E0C10174
:1004F00081709070892BE9F0E60CF71C081D191D1E
:100500009A01AB012A0D3B1D4C1D5D1D80E090E062
:10051000A0E0B0E0E614F7040805190520F481E036
:1005200090E0A0E0B0E0BA01A901480F591F6A1F8E
:100530007B1FAA0CBB1CCC1CDD1C97FE08C081E0F5
:1005400090E0A0E0B0E0A82AB92ACA2ADB2A3196B6
:10055000E032F10549F0660C771C881C991C569412
:10056000479437942794C3CFFA85EA892B893C892D
:100570008B859C85280F391F2E5F3F4F17C0CA01FE
:1005800081709070892B61F016950795F794E79428
:1005900080E090E0A0E0B0E8E82AF92A0A2B1B2BC3
:1005A00076956795579547952F5F3F4F77FDE7CF36
:1005B0000CC0440F551F661F771F17FD4160EE0CDE
:1005C000FF1C001F111F21503040403090E05907A0
:1005D00090E0690790E4790760F32B8F3C8FDB0193
:1005E000CA018F779070A070B07080349105A1051A
:1005F000B10561F447FD0AC0E114F10401051105DC
:1006000029F0405C5F4F6F4F7F4F40781A8EFE1786
:1006100011F081E08A8F4D8F5E8F6F8F78A383E01A
:10062000898FCE0149960E947105A096E2E10C9453
:100630009725A8E1B0E0EFE1F3E00C94832569830E
:100640007A838B839C832D833E834F835887B9E0C5
:10065000EB2EF12CEC0EFD1ECE010196B7010E948F
:1006600046068E010F5E1F4FCE010596B8010E940F
:1006700046062985223008F47EC03989323010F4CC
:10068000B8017CC08A859A8989278A87243011F02D
:10069000223031F4231709F06EC06DE071E06EC0B6
:1006A000343039F41D861E861F86188A1C861B86E8
:1006B00004C0323021F484E08987B7015FC02B8504
:1006C0003C858B899C89281B390B3C872B87ED84C3
:1006D000FE840F851889AD88BE88CF88D88CEA142F
:1006E000FB040C051D0540F4EE0CFF1C001F111F40
:1006F000215030403C872B8720E030E040E050E044
:1007000080E090E0A0E0B0E460E070E0EA14FB0478
:100710000C051D0540F0282B392B4A2B5B2BEA18C2
:10072000FB080C091D09B695A79597958795EE0CC2
:10073000FF1C001F111F6F5F7F4F6F31710531F775
:10074000DA01C9018F779070A070B0708034910584
:10075000A105B10561F427FD0AC0E114F10401050A
:10076000110529F0205C3F4F4F4F5F4F20782D87B8
:100770003E874F87588BBE01675F7F4FCB010E943A
:1007800071056896EAE00C949F25A8E1B0E0EBECD7
:10079000F3E00C94872569837A838B839C832D8374
:1007A0003E834F83588789E0E82EF12CEC0EFD1E26
:1007B000CE010196B7010E9446068E010F5E1F4FC3
:1007C000CE010596B8010E9446068985823040F028
:1007D0008989823028F0C701B8010E94BE0601C095
:1007E0008FEF6896E6E00C94A325A8E1B0E0EBEF6C
:1007F000F3E00C94872569837A838B839C832D8314
:100800003E834F83588789E0E82EF12CEC0EFD1EC5
:10081000CE010196B7010E9446068E010F5E1F4F62
:10082000CE010596B8010E9446068985823040F0C7
:100830008989823028F0C701B8010E94BE0601C034
:100840008FEF6896E6E00C94A325A8E1B0E0EBE218
:10085000F4E00C94872569837A838B839C832D83B2
:100860003E834F83588789E0E82EF12CEC0EFD1E65
:10087000CE010196B7010E9446068E010F5E1F4F02
:10088000CE010596B8010E9446068985823040F067
:100890008989823028F0C701B8010E94BE0601C0D4
:1008A00081E06896E6E00C94A325ACE0B0E0EBE5CF
:1008B000F4E00C948B2569837A838B839C83CE012F
:1008C0000196BE016B5F7F4F0E9446068D8182308C
:1008D00061F1823050F1843021F48E81882351F10E
:1008E0002EC02F81388537FD20C06E812F31310514
:1008F0001CF06623F9F023C08EE190E0821B930B7D
:1009000029853A854B855C8504C056954795379572
:1009100027958A95D2F76623B1F05095409530958A
:1009200021953F4F4F4F5F4F0EC020E030E040E039
:1009300050E009C02FEF3FEF4FEF5FE704C020E02A
:1009400030E040E050E8B901CA012C96E2E00C9496
:10095000A725A8E0B0E0EFEAF4E00C9483257B0142
:100960008C01611571058105910519F482E0898377
:1009700060C083E089838EE1C82ED12CDC82CB82DB
:10098000ED82FE820F831887C801B7010E942205FD
:10099000FC013197F7FF3BC0222733272E1B3F0B6B
:1009A00057016801022E04C0D694C794B794A79447
:1009B0000A94D2F740E050E060E070E081E090E01F
:1009C000A0E0B0E004C0880F991FAA1FBB1F2A95A2
:1009D000D2F70197A109B1098E219F21A023B1234C
:1009E0000097A105B10521F041E050E060E070E022
:1009F0004A295B296C297D294D835E836F83788723
:100A00008EE190E08E1B9F0B9C838B8312C03097EE
:100A100081F00E2E04C0EE0CFF1C001F111F0A9463
:100A2000D2F7ED82FE820F831887CE1ADF0ADC82AE
:100A3000CB821A82CE0101960E9471052896EAE0C7
:100A40000C949F25EF92FF920F931F937B018C01D3
:100A500080E0E81680E0F80681E0080780E01807EB
:100A600088F48FEFE816F1040105110531F028F044
:100A700088E090E0A0E0B0E017C080E090E0A0E067
:100A8000B0E012C080E0E81680E0F80680E00807D9
:100A900081E0180728F088E190E0A0E0B0E004C011
:100AA00080E190E0A0E0B0E020E230E040E050E003
:100AB000281B390B4A0B5B0B04C016950795F7945E
:100AC000E7948A95D2F7F701EB5EFE4F8081281BF1
:100AD000310941095109C9011F910F91FF90EF9010
:100AE0000895DF92EF92FF920F931F93FC01E48031
:100AF000F58006811781D1808081823048F480E0C2
:100B000090E0A0E1B0E0E82AF92A0A2B1B2BA5C04F
:100B1000843009F49FC0823021F4EE24FF24870141
:100B200005C0E114F1040105110519F4E0E0F0E05D
:100B300096C0628173819FEF623879070CF05BC0C9
:100B400022E83FEF261B370B2A3131052CF020E03D
:100B500030E040E050E02AC0B801A701022E04C0F6
:100B600076956795579547950A94D2F781E090E07E
:100B7000A0E0B0E004C0880F991FAA1FBB1F2A95F0
:100B8000D2F70197A109B1098E219F21A023B1239A
:100B90000097A105B10521F081E090E0A0E0B0E070
:100BA0009A01AB01282B392B4A2B5B2BDA01C901A7
:100BB0008F779070A070B07080349105A105B10559
:100BC00039F427FF09C0205C3F4F4F4F5F4F04C0EF
:100BD000215C3F4F4F4F5F4FE0E0F0E02030A0E05E
:100BE0003A07A0E04A07A0E45A0710F0E1E0F0E07D
:100BF00079018A0127C06038710564F5FB01E1586D
:100C0000FF4FD801C7018F779070A070B07080340B
:100C10009105A105B10539F4E7FE0DC080E490E02F
:100C2000A0E0B0E004C08FE390E0A0E0B0E0E80E08
:100C3000F91E0A1F1B1F17FF05C016950795F7948D
:100C4000E794319687E016950795F794E7948A958F
:100C5000D1F705C0EE24FF248701EFEFF0E06E2FFF
:100C6000679566276795902F9F77D794DD24D79453
:100C70008E2F8695492F462B582F5D29B701CA0123
:100C80001F910F91FF90EF90DF900895FC01DB0121
:100C9000408151812281622F6F7770E0221F2227CD
:100CA000221F9381892F880F822B282F30E0991FD4
:100CB0009927991F11969C93119721153105A9F534
:100CC000411551056105710511F482E037C082E8D4
:100CD0009FEF13969C938E9312979A01AB0167E056
:100CE000220F331F441F551F6A95D1F783E08C9361
:100CF0000DC0220F331F441F551F12968D919C91DA
:100D00001397019713969C938E931297203080E04F
:100D1000380780E0480780E4580758F314962D936D
:100D20003D934D935C93179708952F3F310579F4C8
:100D3000411551056105710519F484E08C930895FE
:100D400064FF03C081E08C9312C01C9210C02F5727
:100D5000304013963C932E93129783E08C9387E058
:100D6000440F551F661F771F8A95D1F7706414963C
:100D70004D935D936D937C93179708951F93DC01BA
:100D8000FB019C91923008F447C08081823008F4C6
:100D900043C0943051F411961C91843099F58181AF
:100DA000682F70E0611B71093FC0843021F09230E0
:100DB00031F48230B9F18181882389F12DC01196F7
:100DC0001C9111978230F1F081811817D9F4129695
:100DD0002D913C911397828193818217930794F010
:100DE00028173907BCF014968D919D910D90BC91F8
:100DF000A02D2481358146815781281739074A075C
:100E00005B0718F4112341F00AC082179307A40767
:100E1000B50740F4112319F061E070E005C06FEFF1
:100E20007FEF02C060E070E0CB011F910895DF9377
:100E3000CF93CDB7DEB7A3E5B0E0E3E5F0E0808186
:100E40008F7B8C93A3E5B0E0E3E5F0E080818860E0
:100E50008C93A3E5B0E0E3E5F0E0808180688C93BB
:100E6000A3E5B0E0E3E5F0E0808180618C93A3E549
:100E7000B0E0E3E5F0E080818F7D8C93A3E5B0E006
:100E8000E3E5F0E0808182608C93A9E5B0E0E9E5DC
:100E9000F0E0808182608C93CF91DF910895DF93A1
:100EA000CF930F92CDB7DEB78983E2E5F0E0898179
:100EB00080830F90CF91DF910895DF93CF930F92AE
:100EC000CDB7DEB78983ECE5F0E0898180830F90B0
:100ED000CF91DF910895DF93CF9300D0CDB7DEB7E8
:100EE0009A83898389819A81009731F089819A81D7
:100EF00090933102809330020F900F90CF91DF9149
:100F00000895DF93CF9300D0CDB7DEB79A8389835E
:100F100089819A81009731F089819A819093330277
:100F2000809332020F900F90CF91DF9108951F921E
:100F30000F920FB60F9211242F933F934F935F930D
:100F40006F937F938F939F93AF93BF93EF93FF9391
:100F5000DF93CF93CDB7DEB7809134029091350205
:100F600001969093350280933402809134029091DF
:100F700035022FE08334920791F4809130029091F2
:100F80003102009729F0E0913002F0913102099589
:100F9000109235021092340280EC0E944F07CF91DC
:100FA000DF91FF91EF91BF91AF919F918F917F91D1
:100FB0006F915F914F913F912F910F900FBE0F90C6
:100FC0001F9018951F920F920FB60F9211242F9316
:100FD0003F934F935F936F937F938F939F93AF93C1
:100FE000BF93EF93FF93DF93CF93CDB7DEB780919D
:100FF0003602909137020196909337028093360221
:1010000080913602909137022BE0883B920791F451
:101010008091320290913302009729F0E0913202E0
:10102000F09133020995109237021092360280EC4B
:101030000E944F07CF91DF91FF91EF91BF91AF9148
:101040009F918F917F916F915F914F913F912F91E0
:101050000F900FBE0F901F901895DF93CF93CDB7D1
:10106000DEB7ABE5B0E0EBE5F0E0808180688C9323
:1010700083E063E040E00E945B0EAAE5B0E0EAE5B1
:10108000F0E0808180688C93A5E5B0E0E5E5F0E0D4
:10109000808184608C93A5E5B0E0E5E5F0E0808197
:1010A00088608C93CF91DF910895DF93CF93CDB774
:1010B000DEB72A970FB6F894DEBF0FBECDBF898387
:1010C0006A838981833008F036C18A81843008F0D0
:1010D00032C18981282F30E03A87298789859A850E
:1010E0008130910509F47EC029853A852230310589
:1010F00009F4EBC089859A85009709F01CC1ABE51E
:10110000B0E0EBE5F0E0808180648C93AAE5B0E08C
:10111000EAE5F0E0808180648C9383E062E040E067
:101120000E945B0E8A81282F30E038872F838F81C1
:1011300098858130910549F12F813885223031051C
:101140002CF48F819885009761F0F5C02F81388548
:101150002230310549F18F8198858330910599F1CD
:10116000EAC083E062E041E00E94C00BA5E5B0E088
:10117000E5E5F0E080818E7F8C93A5E5B0E0E5E5C4
:10118000F0E0808182608C93D6C0A5E5B0E0E5E513
:10119000F0E0808181608C93A5E5B0E0E5E5F0E0CA
:1011A000808182608C93C7C0A5E5B0E0E5E5F0E002
:1011B00080818E7F8C93A5E5B0E0E5E5F0E080814D
:1011C0008D7F8C93B8C0A5E5B0E0E5E5F0E08081C7
:1011D00081608C93A5E5B0E0E5E5F0E080818D7F4E
:1011E0008C93A9C0ABE5B0E0EBE5F0E080818068CE
:1011F0008C9383E063E040E00E945B0EAAE5B0E0E0
:10120000EAE5F0E0808180688C938A81282F30E0C5
:101210003E832D838D819E818130910549F12D8101
:101220003E81223031052CF48D819E81009761F042
:1012300082C02D813E812230310549F18D819E8110
:101240008330910599F177C083E063E041E00E942B
:10125000C00BA5E5B0E0E5E5F0E080818B7F8C93E5
:10126000A5E5B0E0E5E5F0E0808188608C9363C09F
:10127000A5E5B0E0E5E5F0E0808184608C93A5E52C
:10128000B0E0E5E5F0E0808188608C9354C0A5E58E
:10129000B0E0E5E5F0E080818B7F8C93A5E5B0E0E0
:1012A000E5E5F0E08081877F8C9345C0A5E5B0E05F
:1012B000E5E5F0E0808184608C93A5E5B0E0E5E5AC
:1012C000F0E08081877F8C9336C0ABE5B0E0EBE542
:1012D000F0E0808180628C9381E062E040E00E94D7
:1012E0005B0EAAE5B0E0EAE5F0E0808180628C93D5
:1012F0008A81282F30E03C832B838B819C8100974F
:1013000031F02B813C812130310571F014C081E036
:1013100062E041E00E94C00BA4E5B0E0E4E5F0E04B
:1013200080818F7B8C9307C0A4E5B0E0E4E5F0E01A
:10133000808180648C932A960FB6F894DEBF0FBE2E
:10134000CDBFCF91DF910895DF93CF93CDB7DEB7B7
:10135000AAE5B0E0EAE5F0E0808180648C93AAE53C
:10136000B0E0EAE5F0E0808180688C93AAE5B0E027
:10137000EAE5F0E0808180628C93CF91DF9108955F
:10138000DF93CF9300D0CDB7DEB79A83898389816D
:101390009A81009731F089819A81909339028093E4
:1013A00038020F900F90CF91DF910895DF93CF9384
:1013B00000D0CDB7DEB79A83898389819A8100975F
:1013C00031F089819A8190933B0280933A020F9089
:1013D0000F90CF91DF910895DF93CF9300D0CDB7D9
:1013E000DEB79A83898389819A81009731F0898158
:1013F0009A8190933D0280933C020F900F90CF9181
:10140000DF9108951F920F920FB60F9211242F9320
:101410003F934F935F936F937F938F939F93AF937C
:10142000BF93EF93FF93DF93CF93CDB7DEB7809158
:10143000380290913902009761F0E0913802F09102
:1014400039020995AAE5B0E0EAE5F0E08081806420
:101450008C93CF91DF91FF91EF91BF91AF919F91CD
:101460008F917F916F915F914F913F912F910F904D
:101470000FBE0F901F9018951F920F920FB60F92EC
:1014800011242F933F934F935F936F937F938F9389
:101490009F93AF93BF93EF93FF93DF93CF93CDB71A
:1014A000DEB780913A0290913B02009761F0E091A3
:1014B0003A02F0913B020995AAE5B0E0EAE5F0E0D6
:1014C000808180688C93CF91DF91FF91EF91BF91E4
:1014D000AF919F918F917F916F915F914F913F91CC
:1014E0002F910F900FBE0F901F9018951F920F9283
:1014F0000FB60F9211242F933F934F935F936F93E7
:101500007F938F939F93AF93BF93EF93FF93DF935B
:10151000CF93CDB7DEB780913C0290913D0200970A
:1015200061F0E0913C02F0913D020995AAE5B0E03E
:10153000EAE5F0E0808180628C93CF91DF91FF91AA
:10154000EF91BF91AF919F918F917F916F915F913B
:101550004F913F912F910F900FBE0F901F901895B4
:10156000DF93CF93CDB7DEB729970FB6F894DEBFE0
:101570000FBECDBF89836A834B838981843008F095
:10158000F6C08A81883008F0F2C08B81282F30E0C5
:101590003987288788859985009739F02885398586
:1015A0002130310509F475C0E2C08981282F30E06F
:1015B0003F832E838E819F818130910559F12E8149
:1015C0003F81223031052CF48E819F81009769F094
:1015D000CEC02E813F812230310589F18E819F81DD
:1015E0008330910509F440C0C2C0AAE3B0E0EAE349
:1015F000F0E08081482F8A81282F30E081E090E060
:10160000022E02C0880F991F0A94E2F78095842366
:101610008C93ADC0A7E3B0E0E7E3F0E08081482F12
:101620008A81282F30E081E090E0022E02C0880FEE
:10163000991F0A94E2F7809584238C9398C0A4E3C1
:10164000B0E0E4E3F0E08081482F8A81282F30E089
:1016500081E090E0022E02C0880F991F0A94E2F701
:10166000809584238C9383C0A1E3B0E0E1E3F0E0B4
:101670008081482F8A81282F30E081E090E0022E7F
:1016800002C0880F991F0A94E2F7809584238C93F7
:101690006EC08981282F30E03D832C838C819D8111
:1016A0008130910549F12C813D81223031052CF4A6
:1016B0008C819D81009761F05AC02C813D81223040
:1016C000310571F18C819D8183309105E9F14FC025
:1016D000AAE3B0E0EAE3F0E08081482F8A81282F76
:1016E00030E081E090E0022E02C0880F991F0A943A
:1016F000E2F7842B8C933BC0A7E3B0E0E7E3F0E094
:101700008081482F8A81282F30E081E090E0022EEE
:1017100002C0880F991F0A94E2F7842B8C9327C08C
:10172000A4E3B0E0E4E3F0E08081482F8A81282F31
:1017300030E081E090E0022E02C0880F991F0A94E9
:10174000E2F7842B8C9313C0A1E3B0E0E1E3F0E077
:101750008081482F8A81282F30E081E090E0022E9E
:1017600002C0880F991F0A94E2F7842B8C93299664
:101770000FB6F894DEBF0FBECDBFCF91DF910895B5
:10178000DF93CF93CDB7DEB729970FB6F894DEBFBE
:101790000FBECDBF89836A834B838981843008F073
:1017A000F6C08A81883008F0F2C08B81282F30E0A3
:1017B0003987288788859985009739F02885398564
:1017C0002130310509F475C0E2C08981282F30E04D
:1017D0003F832E838E819F818130910559F12E8127
:1017E0003F81223031052CF48E819F81009769F072
:1017F000CEC02E813F812230310589F18E819F81BB
:101800008330910509F440C0C2C0ABE3B0E0EBE324
:10181000F0E08081482F8A81282F30E081E090E03D
:10182000022E02C0880F991F0A94E2F78095842344
:101830008C93ADC0A8E3B0E0E8E3F0E08081482FEE
:101840008A81282F30E081E090E0022E02C0880FCC
:10185000991F0A94E2F7809584238C9398C0A5E39E
:10186000B0E0E5E3F0E08081482F8A81282F30E066
:1018700081E090E0022E02C0880F991F0A94E2F7DF
:10188000809584238C9383C0A2E3B0E0E2E3F0E090
:101890008081482F8A81282F30E081E090E0022E5D
:1018A00002C0880F991F0A94E2F7809584238C93D5
:1018B0006EC08981282F30E03D832C838C819D81EF
:1018C0008130910549F12C813D81223031052CF484
:1018D0008C819D81009761F05AC02C813D8122301E
:1018E000310571F18C819D8183309105E9F14FC003
:1018F000ABE3B0E0EBE3F0E08081482F8A81282F52
:1019000030E081E090E0022E02C0880F991F0A9417
:10191000E2F7842B8C933BC0A8E3B0E0E8E3F0E06F
:101920008081482F8A81282F30E081E090E0022ECC
:1019300002C0880F991F0A94E2F7842B8C9327C06A
:10194000A5E3B0E0E5E3F0E08081482F8A81282F0D
:1019500030E081E090E0022E02C0880F991F0A94C7
:10196000E2F7842B8C9313C0A2E3B0E0E2E3F0E053
:101970008081482F8A81282F30E081E090E0022E7C
:1019800002C0880F991F0A94E2F7842B8C93299642
:101990000FB6F894DEBF0FBECDBFCF91DF91089593
:1019A000DF93CF9300D000D00F92CDB7DEB78A83FC
:1019B0006B8387E389838A81843008F06BC08B81D5
:1019C000883008F067C08A81282F30E03D832C835F
:1019D0004C815D814130510541F18C819D81823086
:1019E000910534F42C813D812115310561F052C0FF
:1019F0004C815D814230510551F18C819D81833054
:101A00009105B9F147C0EAE3F0E08081282F30E08A
:101A10008B81882F90E0A90102C0559547958A9542
:101A2000E2F7CA018170898335C0E7E3F0E0808185
:101A3000282F30E08B81882F90E0A90102C05595B6
:101A400047958A95E2F7CA018170898323C0E4E350
:101A5000F0E08081282F30E08B81882F90E0A90171
:101A600002C0559547958A95E2F7CA01817089832E
:101A700011C0E1E3F0E08081282F30E08B81882FD6
:101A800090E0A90102C0559547958A95E2F7CA01F1
:101A90008170898389810F900F900F900F900F9024
:101AA000CF91DF910895DF93CF9300D000D00F92B4
:101AB000CDB7DEB78A836B8387E389838A818430DD
:101AC00008F06BC08B81883008F067C08A81282FAE
:101AD00030E03D832C834C815D814130510541F1E3
:101AE0008C819D818230910534F42C813D812115BA
:101AF000310561F052C04C815D814230510551F198
:101B00008C819D8183309105B9F147C0E9E3F0E014
:101B10008081282F30E08B81882F90E0A90102C0BE
:101B2000559547958A95E2F7CA018170898335C03A
:101B3000E6E3F0E08081282F30E08B81882F90E071
:101B4000A90102C0559547958A95E2F7CA018170AF
:101B5000898323C0E3E3F0E08081282F30E08B818C
:101B6000882F90E0A90102C0559547958A95E2F724
:101B7000CA018170898311C0E0E3F0E08081282FE1
:101B800030E08B81882F90E0A90102C055954795E0
:101B90008A95E2F7CA018170898389810F900F903D
:101BA0000F900F900F90CF91DF910895DF93CF9317
:101BB00000D000D0CDB7DEB789836A8389818430B5
:101BC00008F072C08A81883008F06EC08981282FA1
:101BD00030E03C832B838B819C818130910549F1DE
:101BE0002B813C81223031052CF48B819C81009724
:101BF00061F05AC02B813C812230310571F18B811B
:101C00009C8183309105E9F14FC0ABE3B0E0EBE399
:101C1000F0E08081482F8A81282F30E081E090E039
:101C2000022E02C0880F991F0A94E2F784278C9332
:101C30003BC0A8E3B0E0E8E3F0E08081482F8A8170
:101C4000282F30E081E090E0022E02C0880F991F1B
:101C50000A94E2F784278C9327C0A5E3B0E0E5E37C
:101C6000F0E08081482F8A81282F30E081E090E0E9
:101C7000022E02C0880F991F0A94E2F784278C93E2
:101C800013C0A2E3B0E0E2E3F0E08081482F8A8154
:101C9000282F30E081E090E0022E02C0880F991FCB
:101CA0000A94E2F784278C930F900F900F900F9077
:101CB000CF91DF910895DF93CF9300D000D00F92A2
:101CC000CDB7DEB789836A834B838B81282F30E0C1
:101CD0003D832C838C819D81009781F02C813D81F7
:101CE0002130310581F489816A814B810E94B00ADB
:101CF00089816A8140E00E94C00B05C089816A81A8
:101D00004B810E94B00A0F900F900F900F900F9090
:101D1000CF91DF910895DF93CF9300D000D0CDB75E
:101D2000DEB789836A838981843090F58981282F81
:101D300030E03C832B838B819C8181309105D1F0F5
:101D40002B813C81223031052CF48B819C810097C2
:101D500061F01EC02B813C812230310581F08B81E6
:101D60009C818330910581F013C0EAE3F0E08A8121
:101D700080830EC0E7E3F0E08A81808309C0E4E35A
:101D8000F0E08A81808304C0E1E3F0E08A8180830F
:101D90000F900F900F900F90CF91DF910895DF93E8
:101DA000CF9300D000D0CDB7DEB789836A83898115
:101DB000843090F58981282F30E03C832B838B8100
:101DC0009C8181309105D1F02B813C8122303105FD
:101DD0002CF48B819C81009761F01EC02B813C818B
:101DE0002230310581F08B819C818330910581F017
:101DF00013C0EBE3F0E08A8180830EC0E8E3F0E0FB
:101E00008A81808309C0E5E3F0E08A81808304C091
:101E1000E2E3F0E08A8180830F900F900F900F90A3
:101E2000CF91DF910895DF93CF9300D000D0CDB74D
:101E3000DEB78A8386E189838A81843090F58A813E
:101E4000282F30E03C832B838B819C81813091054E
:101E5000D1F02B813C81223031052CF48B819C8187
:101E6000009761F01EC02B813C812230310581F04A
:101E70008B819C818330910581F013C0EAE3F0E00F
:101E8000808189830EC0E7E3F0E08081898309C007
:101E9000E4E3F0E08081898304C0E1E3F0E0808145
:101EA000898389810F900F900F900F90CF91DF91D0
:101EB0000895DF93CF9300D000D0CDB7DEB78A83EB
:101EC00086E189838A81843090F58A81282F30E0E9
:101ED0003C832B838B819C8181309105D1F02B81B8
:101EE0003C81223031052CF48B819C81009761F07C
:101EF0001EC02B813C812230310581F08B819C8179
:101F00008330910581F013C0E9E3F0E0808189839B
:101F10000EC0E6E3F0E08081898309C0E3E3F0E0EE
:101F20008081898304C0E0E3F0E080818983898136
:101F30000F900F900F900F90CF91DF910895DF9346
:101F4000CF9300D00F92CDB7DEB7898389818430DB
:101F500008F03EC08981282F30E03B832A838A81A4
:101F60009B8181309105E9F02A813B812230310546
:101F70002CF48A819B81009761F02AC02A813B81E1
:101F800022303105B1F08A819B8183309105C9F0FF
:101F90001FC0ABE3B0E0EBE3F0E0808180958C9371
:101FA00017C0A8E3B0E0E8E3F0E0808180958C936F
:101FB0000FC0A5E3B0E0E5E3F0E0808180958C936D
:101FC00007C0A2E3B0E0E2E3F0E0808180958C936B
:101FD0000F900F900F90CF91DF910895DF93CF93E3
:101FE000CDB7DEB7A6E2B0E0E6E2F0E0808180683F
:101FF0008C93A7E2B0E0E7E2F0E0808180648C930C
:10200000A7E2B0E0E7E2F0E080818F778C93A7E26F
:10201000B0E0E7E2F0E080818F7D8C93A6E2B0E053
:10202000E6E2F0E080818F7D8C93A6E2B0E0E6E20C
:10203000F0E08081877F8C9386E00E94E210CF9150
:10204000DF910895DF93CF93CDB7DEB729970FB611
:10205000F894DEBF0FBECDBF8F83A7E2B0E0E7E20A
:10206000F0E08081807E8C938F81282F30E039874B
:102070002887888599858330910509F440C0288593
:102080003985243031057CF4888599858130910526
:1020900031F128853985223031054CF588859985BF
:1020A0000097B1F053C02885398525303105B9F145
:1020B000888599858530910554F1288539852630A4
:1020C0003105A9F18885998587309105C1F13EC018
:1020D000E7E2F0E0A7E2B0E08C91808337C0A7E2AE
:1020E000B0E0E7E2F0E0808181608C932FC0A7E24E
:1020F000B0E0E7E2F0E0808182608C9327C0A7E245
:10210000B0E0E7E2F0E0808183608C931FC0A7E23B
:10211000B0E0E7E2F0E0808184608C9317C0A7E232
:10212000B0E0E7E2F0E0808185608C930FC0A7E229
:10213000B0E0E7E2F0E0808186608C9307C0A7E220
:10214000B0E0E7E2F0E0808187608C93A6E2B0E047
:10215000E6E2F0E0808180648C93E6E2F0E080814A
:1021600082958F70882F90E0817090700097A9F30E
:10217000E4E2F0E08081882F90E09E838D83E5E2A9
:10218000F0E08081882F90E0982F88279C838B83B4
:10219000A6E2B0E0E6E2F0E0808180618C932D81E0
:1021A0003E818B819C81820F931F9A8389838981D1
:1021B0009A8129960FB6F894DEBF0FBECDBFCF919E
:1021C000DF910895DF93CF9300D0CDB7DEB78A8338
:1021D00019823CC08A81282F30E08981882F90E0C5
:1021E000A90102C0559547958A95E2F7CA01817009
:1021F00090708823A1F0A6E2B0E0E6E2F0E08081F2
:10220000482F8981282F30E081E090E0022E02C023
:10221000880F991F0A94E2F7842B8C9314C0A6E2CE
:10222000B0E0E6E2F0E08081482F8981282F30E09D
:1022300081E090E0022E02C0880F991F0A94E2F715
:10224000809584238C9389818F5F898389818330F2
:1022500008F4C0CF0F900F90CF91DF910895DF93D6
:10226000CF9300D0CDB7DEB79A838983E981FA8115
:1022700080818770282FE981FA81808186958695F3
:1022800086958770982F822F692F40E00E945B0E01
:10229000E981FA8180818295869586958370817027
:1022A000882F90E0009791F4E981FA81808187700E
:1022B000282FE981FA818081869586958695877099
:1022C000982F822F692F41E00E94C00B0F900F9032
:1022D000CF91DF910895DF93CF9300D00F92CDB7C8
:1022E000DEB79B838A83EA81FB8180818770282FF8
:1022F000EA81FB8180818695869586958770982FE7
:10230000822F692F0E94530D898389810F900F902E
:102310000F90CF91DF910895DF93CF93CDB7DEB7C4
:1023200080E060E041E00E945B0E80E061E041E01F
:102330000E945B0E80E062E041E00E945B0E80E064
:1023400063E041E00E945B0ECF91DF9108950F930F
:102350001F93DF93CF93CDB7DEB7C158D0400FB6F0
:10236000F894DEBF0FBECDBFFE01E158FF4F808362
:10237000FE01E058FF4F71836083FE01E058FF4F7C
:1023800080819181CC01A0E0B0E0BC01CD010E9430
:10239000A904DC01CB01BC01CD0123E333E343E31A
:1023A0005EE30E941903DC01CB01BC01CD010E9458
:1023B0004900DC01CB01FE01E358FF4F969587955C
:1023C000969587959183808380E060E041E00E944C
:1023D000C00B80E061E041E00E94C00B80E062E061
:1023E00041E00E94C00B80E063E041E00E94C00B2E
:1023F000FE01E158FF4F8081882309F06EC3FE0182
:10240000E558FF4F1182108258C3FE01E658FF4F76
:10241000108220C0FE01E658FF4F8081282F30E057
:102420008EE090E002C0959587952A95E2F7982F67
:102430009170FE01E658FF4F80E06081492F0E94B5
:10244000C00BDE01A658BF4FFE01E658FF4F80814A
:102450008F5F8C93FE01E658FF4F80818430D0F26D
:10246000FE01E359FF4F80E090E0A0E2B1E48083F9
:102470009183A283B3838E0107591F4FFE01E35955
:10248000FF4F608171818281938120E030E04AEFCB
:1024900054E40E941F02DC01CB01F8018083918388
:1024A000A283B383FE01E759FF4F6081718182816E
:1024B000938120E030E040E85FE30E942504882318
:1024C00044F4FE01E959FF4F81E090E0918380835D
:1024D00064C0FE01E759FF4F608171818281938161
:1024E00020E03FEF4FE757E40E94C50318160CF0B9
:1024F00043C0FE01E359FF4F608171818281938166
:1025000020E030E040E251E40E941F02DC01CB01F8
:102510008E0109591F4FBC01CD010E944900DC0109
:10252000CB01F801918380831FC0FE01EB59FF4F5F
:1025300088EC90E091838083FE01EB59FF4F80810E
:1025400091810197F1F7FE01EB59FF4F9183808351
:10255000DE01A959BF4FFE01E959FF4F80819181EA
:10256000019711969C938E93FE01E959FF4F80814C
:1025700091810097D1F628C08E0109591F4FFE01A5
:10258000E759FF4F60817181828193810E944900E8
:10259000DC01CB01F80191838083DE01AD59BF4F8F
:1025A000FE01E959FF4F8081918111969C938E9392
:1025B000FE01ED59FF4F808191810197F1F7FE01F6
:1025C000ED59FF4F91838083FE01E758FF4F108242
:1025D00020C0FE01E758FF4F8081282F30E08DE0BA
:1025E00090E002C0959587952A95E2F7982F917013
:1025F000FE01E758FF4F80E06081492F0E94C00B29
:10260000DE01A758BF4FFE01E758FF4F80818F5F63
:102610008C93FE01E758FF4F80818430D0F2FE0199
:10262000E15AFF4F80E090E0A0E2B1E48083918323
:10263000A283B3838E01055A1F4FFE01E15AFF4F5B
:10264000608171818281938120E030E04AEF54E41F
:102650000E941F02DC01CB01F80180839183A283D9
:10266000B383FE01E55AFF4F6081718182819381BE
:1026700020E030E040E85FE30E942504882344F432
:10268000FE01E75AFF4F81E090E09183808364C0B0
:10269000FE01E55AFF4F608171818281938120E0C4
:1026A0003FEF4FE757E40E94C50318160CF043C0F4
:1026B000FE01E15AFF4F608171818281938120E0A8
:1026C00030E040E251E40E941F02DC01CB018E01A8
:1026D000075A1F4FBC01CD010E944900DC01CB010C
:1026E000F801918380831FC0FE01E95AFF4F88ECF7
:1026F00090E091838083FE01E95AFF4F80819181B0
:102700000197F1F7FE01E95AFF4F91838083DE01C3
:10271000A75ABF4FFE01E75AFF4F80819181019771
:1027200011969C938E93FE01E75AFF4F8081918111
:102730000097D1F628C08E01075A1F4FFE01E55AB7
:10274000FF4F60817181828193810E944900DC0189
:10275000CB01F80191838083DE01AB5ABF4FFE01AC
:10276000E75AFF4F8081918111969C938E93FE01D1
:10277000EB5AFF4F808191810197F1F7FE01EB5AEF
:10278000FF4F91838083FE01E858FF4F108220C0E5
:10279000FE01E858FF4F8081282F30E08BE090E069
:1027A00002C0959587952A95E2F7982F9170FE01C2
:1027B000E858FF4F80E06081492F0E94C00BDE0186
:1027C000A858BF4FFE01E858FF4F80818F5F8C9360
:1027D000FE01E858FF4F80818430D0F2FE01EF5AAD
:1027E000FF4F80E090E0A0E2B1E480839183A28378
:1027F000B3838E01035B1F4FFE01EF5AFF4F6081D1
:1028000071818281938120E030E04AEF54E40E949C
:102810001F02DC01CB01F80180839183A283B38383
:10282000FE01E35BFF4F608171818281938120E033
:1028300030E040E85FE30E942504882344F4FE0171
:10284000E55BFF4F81E090E09183808364C0FE01EF
:10285000E35BFF4F608171818281938120E03FEFD4
:102860004FE757E40E94C50318160CF043C0FE0161
:10287000EF5AFF4F608171818281938120E030E0C7
:1028800040E251E40E941F02DC01CB018E01055B96
:102890001F4FBC01CD010E944900DC01CB01F801B2
:1028A000918380831FC0FE01E75BFF4F88EC90E0BF
:1028B00091838083FE01E75BFF4F808191810197C7
:1028C000F1F7FE01E75BFF4F91838083DE01A55B9B
:1028D000BF4FFE01E55BFF4F80819181019711960B
:1028E0009C938E93FE01E55BFF4F80819181009761
:1028F000D1F628C08E01055B1F4FFE01E35BFF4F41
:1029000060817181828193810E944900DC01CB0149
:10291000F80191838083DE01A95BBF4FFE01E55B77
:10292000FF4F8081918111969C938E93FE01E95B0C
:10293000FF4F808191810197F1F7FE01E95BFF4F25
:1029400091838083FE01E958FF4F108220C0FE0171
:10295000E958FF4F8081282F30E087E090E002C0E7
:10296000959587952A95E2F7982F9170FE01E95881
:10297000FF4F80E06081492F0E94C00BDE01A95803
:10298000BF4FFE01E958FF4F80818F5F8C93FE019E
:10299000E958FF4F80818430D0F2FE01ED5BFF4F9C
:1029A00080E090E0A0E2B1E480839183A283B383CE
:1029B0008E01015C1F4FFE01ED5BFF4F6081718155
:1029C0008281938120E030E04AEF54E40E941F02AC
:1029D000DC01CB01F80180839183A283B383FE01E4
:1029E000FF96608171818281938120E030E040E830
:1029F0005FE30E94250488232CF481E090E09EAFE1
:102A00008DAF46C0FE01FF96608171818281938106
:102A100020E03FEF4FE757E40E94C503181664F526
:102A2000FE01ED5BFF4F608171818281938120E027
:102A300030E040E251E40E941F02DC01CB01BC0106
:102A4000CD010E944900DC01CB019EAF8DAF0FC0CC
:102A500088EC90E09CAF8BAF8BAD9CAD0197F1F70C
:102A60009CAF8BAF8DAD9EAD01979EAF8DAF8DAD01
:102A70009EAD009769F716C0FE01FF9660817181D7
:102A8000828193810E944900DC01CB019EAF8DAF12
:102A90008DAD9EAD9AAF89AF89AD9AAD0197F1F733
:102AA0009AAF89AFDE01A558BF4FFE01E558FF4F31
:102AB0008081918101968D939C93FE01E558FF4F93
:102AC000DE01A358BF4F208131818D919C911197D8
:102AD0002817390708F499CC9BC2FE01E158FF4F33
:102AE0008081813009F094C2FE01EB58FF4F1182C2
:102AF00010827FC2FE01EC58FF4F108220C0FE0101
:102B0000EC58FF4F8081282F30E087E090E002C032
:102B1000959587952A95E2F7982F9170FE01EC58CC
:102B2000FF4F80E06081492F0E94C00BDE01AC584E
:102B3000BF4FFE01EC58FF4F80818F5F8C93FE01E9
:102B4000EC58FF4F80818430D0F280E090E0A0E22A
:102B5000B1E48DAB9EABAFABB8AF6DA97EA98FA929
:102B600098AD20E030E04AEF54E40E941F02DC01FF
:102B7000CB0189AB9AABABABBCAB69A97AA98BA9EA
:102B80009CA920E030E040E85FE30E942504882310
:102B90002CF481E090E098AB8FA73FC069A97AA997
:102BA0008BA99CA920E03FEF4FE757E40E94C503A3
:102BB00018164CF56DA97EA98FA998AD20E030E0DC
:102BC00040E251E40E941F02DC01CB01BC01CD01B7
:102BD0000E944900DC01CB0198AB8FA70FC088ECA5
:102BE00090E09EA78DA78DA59EA50197F1F79EA7C2
:102BF0008DA78FA598A9019798AB8FA78FA598A9A6
:102C0000009769F714C069A97AA98BA99CA90E94A9
:102C10004900DC01CB0198AB8FA78FA598A99CA791
:102C20008BA78BA59CA50197F1F79CA78BA7FE010D
:102C3000ED58FF4F108220C0FE01ED58FF4F8081FC
:102C4000282F30E08BE090E002C0959587952A957B
:102C5000E2F7982F9170FE01ED58FF4F80E0608100
:102C6000492F0E94C00BDE01AD58BF4FFE01ED5849
:102C7000FF4F80818F5F8C93FE01ED58FF4F808165
:102C80008430D0F280E090E0A0E2B1E48FA398A776
:102C9000A9A7BAA76FA178A589A59AA520E030E0D9
:102CA0004AEF54E40E941F02DC01CB018BA39CA3DA
:102CB000ADA3BEA36BA17CA18DA19EA120E030E0BD
:102CC00040E85FE30E94250488232CF481E090E033
:102CD0009AA389A33FC06BA17CA18DA19EA120E0F6
:102CE0003FEF4FE757E40E94C50318164CF56FA15C
:102CF00078A589A59AA520E030E040E251E40E9441
:102D00001F02DC01CB01BC01CD010E944900DC01A6
:102D1000CB019AA389A30FC088EC90E098A38F8F72
:102D20008F8D98A10197F1F798A38F8F89A19AA110
:102D300001979AA389A389A19AA1009769F714C062
:102D40006BA17CA18DA19EA10E944900DC01CB0159
:102D50009AA389A389A19AA19E8F8D8F8D8D9E8D17
:102D60000197F1F79E8F8D8FFE01EE58FF4F108275
:102D700020C0FE01EE58FF4F8081282F30E08DE00B
:102D800090E002C0959587952A95E2F7982F91706B
:102D9000FE01EE58FF4F80E06081492F0E94C00B7A
:102DA000DE01AE58BF4FFE01EE58FF4F80818F5FAE
:102DB0008C93FE01EE58FF4F80818430D0F280E08A
:102DC00090E0A0E2B1E4898F9A8FAB8FBC8F698DC0
:102DD0007A8D8B8D9C8D20E030E04AEF54E40E9488
:102DE0001F02DC01CB018D8B9E8BAF8BB88F6D8961
:102DF0007E898F89988D20E030E040E85FE30E9473
:102E0000250488232CF481E090E09C8B8B8B3FC0C1
:102E10006D897E898F89988D20E03FEF4FE757E4D9
:102E20000E94C50318164CF5698D7A8D8B8D9C8D8B
:102E300020E030E040E251E40E941F02DC01CB01BF
:102E4000BC01CD010E944900DC01CB019C8B8B8B26
:102E50000FC088EC90E09A8B898B89899A890197B9
:102E6000F1F79A8B898B8B899C8901979C8B8B8B33
:102E70008B899C89009769F714C06D897E898F8939
:102E8000988D0E944900DC01CB019C8B8B8B8B8938
:102E90009C89988B8F878F8598890197F1F7988BFC
:102EA0008F87FE01EF58FF4F108220C0FE01EF58C0
:102EB000FF4F8081282F30E08EE090E002C0959592
:102EC00087952A95E2F7982F9170FE01EF58FF4FF2
:102ED00080E06081492F0E94C00BDE01AF58BF4FD8
:102EE000FE01EF58FF4F80818F5F8C93FE01EF58FA
:102EF000FF4F80818430D0F280E090E0A0E2B1E426
:102F00008B879C87AD87BE876B857C858D859E85ED
:102F100020E030E04AEF54E40E941F02DC01CB01C4
:102F20008F839887A987BA876F81788589859A85E5
:102F300020E030E040E85FE30E94250488232CF481
:102F400081E090E09E838D833FC06F817885898585
:102F50009A8520E03FEF4FE757E40E94C50318161B
:102F60004CF56B857C858D859E8520E030E040E2C8
:102F700051E40E941F02DC01CB01BC01CD010E9483
:102F80004900DC01CB019E838D830FC088EC90E06B
:102F90009C838B838B819C810197F1F79C838B832E
:102FA0008D819E8101979E838D838D819E81009767
:102FB00069F714C06F81788589859A850E944900D8
:102FC000DC01CB019E838D838D819E819A838983D1
:102FD00089819A810197F1F79A838983DE01AB5841
:102FE000BF4FFE01EB58FF4F8081918101968D9379
:102FF0009C93FE01EB58FF4FDE01A358BF4F208189
:1030000031818D919C9111972817390708F472CD61
:10301000CF57DF4F0FB6F894DEBF0FBECDBFCF91B5
:10302000DF911F910F910895DF93CF93CDB7DEB756
:1030300080E060E041E00E94C00B80E061E041E0A0
:103040000E94C00B80E062E041E00E94C00B80E083
:1030500063E041E00E94C00BCF91DF9108950F9390
:103060001F93DF93CF93CDB7DEB7CC54D0400FB6CC
:10307000F894DEBF0FBECDBF81E065E041E00E9465
:103080005B0E81E066E041E00E945B0E81E067E05C
:1030900041E00E945B0E82E06FEF0E948B0EFE010A
:1030A000E75BFF4F80E090E0A0E2B2E48083918391
:1030B000A283B3838E010B5B1F4FFE01E75BFF4FC3
:1030C000608171818281938120E030E04AEF54E495
:1030D0000E941F02DC01CB01F80180839183A2834F
:1030E000B383FE01EB5BFF4F60817181828193812D
:1030F00020E030E040E85FE30E942504882344F4A8
:10310000FE01ED5BFF4F81E090E09183808364C01E
:10311000FE01EB5BFF4F608171818281938120E032
:103120003FEF4FE757E40E94C50318160CF043C069
:10313000FE01E75BFF4F608171818281938120E016
:1031400030E040E251E40E941F02DC01CB018E011D
:103150000D5B1F4FBC01CD010E944900DC01CB017A
:10316000F801918380831FC0FE01EF5BFF4F88EC65
:1031700090E091838083FE01EF5BFF4F808191811E
:103180000197F1F7FE01EF5BFF4F91838083DE0132
:10319000AD5BBF4FFE01ED5BFF4F808191810197D9
:1031A00011969C938E93FE01ED5BFF4F8081918180
:1031B0000097D1F624C08E010D5B1F4FFE01EB5B23
:1031C000FF4F60817181828193810E944900DC01FF
:1031D000CB01F80191838083FE01ED5BFF4F80817D
:1031E0009181FE01FF9691838083FE01FF9680818D
:1031F00091810197F1F7FE01FF969183808388E327
:103200000E94051B80E090E0A8E4B2E48BAF9CAF85
:10321000ADAFBEAF6BAD7CAD8DAD9EAD2BEA3AEAE6
:103220004AE250E40E941F02DC01CB018FAB98AF51
:10323000A9AFBAAF6FA978AD89AD9AAD20E030E003
:1032400040E85FE30E94250488231CF481E08EABF4
:1032500091C06FA978AD89AD9AAD20E030E04FE71D
:1032600053E40E94C50318160CF07BC06BAD7CAD17
:103270008DAD9EAD20E030E04AE754E40E94190392
:10328000DC01CB018AAB9BABACABBDAB6AA97BA924
:103290008CA99DA920E030E04AEF54E40E941F026F
:1032A000DC01CB018EA79FA7A8ABB9AB6EA57FA50C
:1032B00088A999A920E030E040E85FE30E94250456
:1032C00088232CF481E090E09DA78CA73FC06EA5D9
:1032D0007FA588A999A920E03FEF4FE757E40E9416
:1032E000C50318164CF56AA97BA98CA99DA920E0F5
:1032F00030E040E251E40E941F02DC01CB01BC013E
:10330000CD010E944900DC01CB019DA78CA70FC015
:1033100088EC90E09BA78AA78AA59BA50197F1F767
:103320009BA78AA78CA59DA501979DA78CA78CA577
:103330009DA5009769F724C06EA57FA588A999A9C6
:103340000E944900DC01CB019DA78CA78CA59DA5FF
:1033500099A788A788A599A50197F1F799A788A7A4
:103360000FC06FA978AD89AD9AAD0E944900DC010C
:10337000CB018EAB8EA98FA38FA18A95F1F78FA376
:103380008CE00E94051B80E090E0A8E4B2E48BA3EF
:103390009CA3ADA3BEA36BA17CA18DA19EA12BEA92
:1033A0003AEA4AE250E40E941F02DC01CB018F8F0F
:1033B00098A3A9A3BAA36F8D78A189A19AA120E0AF
:1033C00030E040E85FE30E94250488231CF481E09C
:1033D0008E8F91C06F8D78A189A19AA120E030E0F5
:1033E0004FE753E40E94C50318160CF07BC06BA195
:1033F0007CA18DA19EA120E030E04AE754E40E9428
:103400001903DC01CB018A8F9B8FAC8FBD8F6A8D36
:103410007B8D8C8D9D8D20E030E04AEF54E40E943E
:103420001F02DC01CB018E8B9F8BA88FB98F6E8919
:103430007F89888D998D20E030E040E85FE30E942D
:10344000250488232CF481E090E09D8B8C8B3FC079
:103450006E897F89888D998D20E03FEF4FE757E493
:103460000E94C50318164CF56A8D7B8D8C8D9D8D41
:1034700020E030E040E251E40E941F02DC01CB0179
:10348000BC01CD010E944900DC01CB019D8B8C8BDE
:103490000FC088EC90E09B8B8A8B8A899B8901976F
:1034A000F1F79B8B8A8B8C899D8901979D8B8C8BE7
:1034B0008C899D89009769F724C06E897F89888DE2
:1034C000998D0E944900DC01CB019D8B8C8B8C89EE
:1034D0009D89998B888B888999890197F1F7998BB8
:1034E000888B0FC06F8D78A189A19AA10E94490095
:1034F000DC01CB018E8F8E8D8F878F858A95F1F7BA
:103500008F8781E00E94051B80E090E0A0EAB0E494
:103510008B879C87AD87BE876B857C858D859E85D7
:1035200020E030E04AEF54E40E941F02DC01CB01AE
:103530008F839887A987BA876F81788589859A85CF
:1035400020E030E040E85FE30E94250488232CF46B
:1035500081E090E09E838D833FC06F81788589856F
:103560009A8520E03FEF4FE757E40E94C503181605
:103570004CF56B857C858D859E8520E030E040E2B2
:1035800051E40E941F02DC01CB01BC01CD010E946D
:103590004900DC01CB019E838D830FC088EC90E055
:1035A0009C838B838B819C810197F1F79C838B8318
:1035B0008D819E8101979E838D838D819E81009751
:1035C00069F714C06F81788589859A850E944900C2
:1035D000DC01CB019E838D838D819E819A838983BB
:1035E00089819A810197F1F79A83898386E00E9405
:1035F000051BC45BDF4F0FB6F894DEBF0FBECDBF17
:10360000CF91DF911F910F910895DF93CF93CDB7A5
:10361000DEB72F970FB6F894DEBF0FBECDBF8F87F2
:1036200081E065E040E00E94C00B81E066E040E0A0
:103630000E94C00B82E06F850E94CF0E81E067E0A0
:1036400041E00E94C00B80E090E0A0EAB0E48B87EC
:103650009C87AD87BE876B857C858D859E8520E0A8
:1036600030E04AEF54E40E941F02DC01CB018F835B
:103670009887A987BA876F81788589859A8520E0A0
:1036800030E040E85FE30E94250488232CF481E0C9
:1036900090E09E838D833FC06F81788589859A8570
:1036A00020E03FEF4FE757E40E94C50318164CF5A2
:1036B0006B857C858D859E8520E030E040E251E47D
:1036C0000E941F02DC01CB01BC01CD010E94490018
:1036D000DC01CB019E838D830FC088EC90E09C833E
:1036E0008B838B819C810197F1F79C838B838D81E8
:1036F0009E8101979E838D838D819E81009769F7BE
:1037000014C06F81788589859A850E944900DC0103
:10371000CB019E838D838D819E819A83898389814C
:103720009A810197F1F79A83898381E067E040E00D
:103730000E94C00B2F960FB6F894DEBF0FBECDBF10
:10374000CF91DF910895DF93CF93CDB7DEB72F9759
:103750000FB6F894DEBF0FBECDBF8F8781E065E066
:1037600041E00E94C00B81E066E040E00E94C00B97
:1037700082E06F850E94CF0E81E067E041E00E9409
:10378000C00B80E090E0A0EAB0E48B879C87AD8717
:10379000BE876B857C858D859E8520E030E04AEF75
:1037A00054E40E941F02DC01CB018F839887A98714
:1037B000BA876F81788589859A8520E030E040E876
:1037C0005FE30E94250488232CF481E090E09E832F
:1037D0008D833FC06F81788589859A8520E03FEF92
:1037E0004FE757E40E94C50318164CF56B857C859E
:1037F0008D859E8520E030E040E251E40E941F026A
:10380000DC01CB01BC01CD010E944900DC01CB01F0
:103810009E838D830FC088EC90E09C838B838B818B
:103820009C810197F1F79C838B838D819E81019709
:103830009E838D838D819E81009769F714C06F816F
:10384000788589859A850E944900DC01CB019E8399
:103850008D838D819E819A83898389819A81019745
:10386000F1F79A83898381E067E040E00E94C00B12
:1038700080913F028F5F80933F0280913F028031B1
:1038800050F080913E0280540E94051B80913E02C0
:103890008F5F80933E0280913E02823150F081E042
:1038A0000E94051B80E80E94051B10923F021092A7
:1038B0003E022F960FB6F894DEBF0FBECDBFCF915C
:1038C000DF910895DF93CF9300D000D00F92CDB752
:1038D000DEB789836A834B838B8181508B838A8196
:1038E000282F30E03D832C838C819D818130910590
:1038F00031F02C813D812230310549F00FC08B81A0
:1039000080580E94051B89810E94A31B07C08B81E0
:1039100080540E94051B89810E94A31B0F900F9069
:103920000F900F900F90CF91DF910895DF93CF9379
:1039300000D0CDB7DEB79A8389830CC0E981FA81C4
:103940008081282F89819A8101969A838983822F89
:103950000E94A31BE981FA818081882379F70F9067
:103960000F90CF91DF910895DF93CF9300D000D0D7
:10397000CDB7DEB79A8389836B834C8312C0E9810C
:10398000FA818081282F89819A8101969A8389837F
:103990009C818C818F5F8C83822F6B81492F0E9449
:1039A000621CE981FA818081882349F70F900F908A
:1039B0000F900F90CF91DF910895DF93CF93CDB704
:1039C000DEB72A970FB6F894DEBF0FBECDBF9A8739
:1039D000898786E0FE013396DF01982F1D929A9524
:1039E000E9F71A8289859A85009709F580E30E9494
:1039F000A31B1DC08A81E82FF0E089859A852AE003
:103A000030E0B9010E946725282FCE010396E80F08
:103A1000F91F208389859A852AE030E0B9010E9448
:103A20006725CB019A8789878A818F5F8A838985F9
:103A30009A850097F9F68A818150898311C089811E
:103A4000282F332727FD3095CE010396FC01E20F86
:103A5000F31F8081805D0E94A31B8981815089832F
:103A60008981882364F72A960FB6F894DEBF0FBECB
:103A7000CDBFCF91DF910895DF93CF93CDB7DEB760
:103A80002C970FB6F894DEBF0FBECDBF9A878987FB
:103A90006B874C8786E0FE013396DF01982F1D92DD
:103AA0009A95E9F71A821DC08A81E82FF0E089858E
:103AB0009A852AE030E0B9010E946725282FCE01BF
:103AC0000396E80FF91F208389859A852AE030E064
:103AD000B9010E946725CB019A8789878A818F5F08
:103AE0008A8389859A850097F9F68A81815089832E
:103AF00019C08981282F332727FD3095CE010396E1
:103B0000FC01E20FF31F8081982F905D2C858C853E
:103B10008F5F8C87892F6B85422F0E94621C898161
:103B2000815089838981882324F72C960FB6F894D5
:103B3000DEBF0FBECDBFCF91DF910895DF93CF934E
:103B400000D000D000D0CDB7DEB79B838A836C83D2
:103B50004D832E838C81882F90E00896880F991FC3
:103B6000880F991F880F991F0E94051B19820EC08C
:103B70008981282F30E08A819B81FC01E20FF31FAD
:103B800080810E94A31B89818F5F8983898188300E
:103B900078F38C816D814E810E94621C26960FB64F
:103BA000F894DEBF0FBECDBFCF91DF910895DF93B4
:103BB000CF93CDB7DEB783E060E040E00E945B0EBC
:103BC00083E061E040E00E945B0E83E062E040E061
:103BD0000E945B0E83E063E040E00E945B0E83E0A6
:103BE00064E041E00E945B0E83E065E041E00E94FA
:103BF0005B0E83E066E041E00E945B0E83E067E0DD
:103C000041E00E945B0E83E06FE00E94CF0ECF91F7
:103C1000DF910895DF93CF93CDB7DEB763970FB6EB
:103C2000F894DEBF0FBECDBF8FEF8B8B8FEF8A8BEB
:103C3000198A188A1F86188ACDC08889882F90E033
:103C4000FC01EB5EFD4F908183E0692F40E00E9414
:103C5000C00B198AA9C080E090E0A0E2B1E48B8794
:103C60009C87AD87BE876B857C858D859E8520E092
:103C700030E04AEF54E40E941F02DC01CB018F8345
:103C80009887A987BA876F81788589859A8520E08A
:103C900030E040E85FE30E94250488232CF481E0B3
:103CA00090E09E838D833FC06F81788589859A855A
:103CB00020E03FEF4FE757E40E94C50318164CF58C
:103CC0006B857C858D859E8520E030E040E251E467
:103CD0000E941F02DC01CB01BC01CD010E94490002
:103CE000DC01CB019E838D830FC088EC90E09C8328
:103CF0008B838B819C810197F1F79C838B838D81D2
:103D00009E8101979E838D838D819E81009769F7A7
:103D100014C06F81788589859A850E944900DC01ED
:103D2000CB019E838D838D819E819A838983898136
:103D30009A810197F1F79A8389838989882F90E086
:103D4000FC01E75EFD4F908183E0692F0E94530DD7
:103D50008B8B8B89882329F50CC08989882F90E06B
:103D6000FC01E75EFD4F908183E0692F0E94530DB7
:103D70008B8B8B89882389F38989482F50E0888928
:103D8000282F30E0CA01880F991F880F991F820FD2
:103D9000931FFC01E35EFD4F80818A8B81E08F875A
:103DA00007C089898F5F898B8989843008F453CF54
:103DB0008889882F90E0FC01EB5EFD4F908183E0C5
:103DC000692F41E00E94C00B8F85813039F08889CE
:103DD0008F5F888B8889843008F42FCF8A89639617
:103DE0000FB6F894DEBF0FBECDBFCF91DF9108951F
:103DF000DF93CF93CDB7DEB781E060E041E00E9472
:103E00005B0E81E061E041E00E945B0ECF91DF91AB
:103E10000895DF93CF9300D00F92CDB7DEB789839B
:103E20008981282F30E03B832A838A819B810097F8
:103E300031F02A813B812130310561F015C081E0EC
:103E400060E041E00E94C00B81E061E040E00E9440
:103E5000C00B0AC081E060E040E00E94C00B81E03E
:103E600061E041E00E94C00B0F900F900F90CF9146
:103E7000DF910895DF93CF93CDB7DEB781E060E0A7
:103E800040E00E94C00B81E061E040E00E94C00B76
:103E9000CF91DF910895DF93CF9300D0CDB7DEB7F8
:103EA0009A838983E981FA818081E981FA81248179
:103EB000E981FA819085622F492F0E945B0EE9818A
:103EC000FA818181E981FA812581E981FA819185EF
:103ED000622F492F0E945B0EE981FA818281E9817C
:103EE000FA812681E981FA819285622F492F0E9409
:103EF0005B0EE981FA818381E981FA812781E98179
:103F0000FA819385622F492F0E945B0E0F900F90CC
:103F1000CF91DF910895DF93CF9300D00F92CDB76B
:103F2000DEB79A8389836B83E981FA812081E981F5
:103F3000FA8134818B81982F9170822F632F492FC2
:103F40000E94C00BE981FA813181E981FA812581E2
:103F50008B818695982F9170832F622F492F0E9415
:103F6000C00BE981FA813281E981FA8126818B8156
:103F700086958695982F9170832F622F492F0E94E6
:103F8000C00BE981FA813381E981FA8127818B8134
:103F9000869586958695982F9170832F622F492F4D
:103FA0000E94C00B0F900F900F90CF91DF9108955A
:103FB000DF93CF93CDB7DEB7AA970FB6F894DEBFE5
:103FC0000FBECDBF0E942F180E94D71D0E94F81E61
:103FD0000E948C1181E062E041E00E945B0E0E9431
:103FE0009D2280934D0280914D028C3209F018C2BF
:103FF00010922E0210922D0281E00E94051B80E695
:1040000090E061E041E00E94B41C80E090E0AAE70B
:10401000B4E48FA398A7A9A7BAA76FA178A589A58B
:104020009AA520E030E04AEF54E40E941F02DC0130
:10403000CB018BA39CA3ADA3BEA36BA17CA18DA13F
:104040009EA120E030E040E85FE30E942504882341
:104050002CF481E090E09AA389A33FC06BA17CA1DE
:104060008DA19EA120E03FEF4FE757E40E94C503DA
:1040700018164CF56FA178A589A59AA520E030E027
:1040800040E251E40E941F02DC01CB01BC01CD01E2
:104090000E944900DC01CB019AA389A30FC088ECE0
:1040A00090E098A38F8F8F8D98A10197F1F798A337
:1040B0008F8F89A19AA101979AA389A389A19AA117
:1040C000009769F714C06BA17CA18DA19EA10E94ED
:1040D0004900DC01CB019AA389A389A19AA19E8FF3
:1040E0008D8F8D8D9E8D0197F1F79E8F8D8F81E045
:1040F0000E94051B86E690E061E041E00E94B41C4E
:1041000081E790E062E041E00E94B41C8DE292E021
:104110000E947B2480934E0280914E02813009F0F0
:104120004BC081E00E94051B8EE790E061E041E01A
:104130000E94B41C86E890E062E041E00E94B41C5A
:1041400083E990E061E04CE00E94B41C8EE790E0CF
:1041500061E041E00E94B41C86E890E062E041E04A
:104160000E94B41C83E990E061E04CE00E94B41C22
:104170008DE292E00E947B2480934F0280914F0257
:10418000813021F480E00E94091FE0CF80914F022E
:10419000823021F481E00E94091FD8CF80914F0224
:1041A0008330A1F60E943A1F80914F02833009F0BC
:1041B000ADCF0E943A1F17CF80914E02823009F096
:1041C000A5CF81E00E94051B89E990E061E041E014
:1041D0000E94B41C85EA90E062E041E00E94B41CB9
:1041E00083E990E061E04CE00E94B41C8DE292E033
:1041F0000E947B248093500280915002813009F00C
:1042000040C081E00E94051B8EE790E061E041E044
:104210000E94B41C8DEA90E062E041E00E94B41C70
:1042200083E990E061E04CE00E94B41C8DE292E0F2
:104230000E947B248093510280915102813051F47D
:104240008AEB90E062E04FE00E94B41C81E0809332
:104250004C02ECCF80915102823049F410924C0212
:104260008AEB90E062E04FE00E94B41CDFCF8091C7
:1042700051028330D9F680915102833009F4A1CFE5
:10428000C0CF80915002823009F0BDC081E00E9411
:10429000051B8DEB90E061E041E00E94B41C8EE3D1
:1042A00062E041E00E94621C8DE292E00E947B2469
:1042B0009093530280935202809152029091530244
:1042C00021E08936920708F48CC089EC90E061E027
:1042D00041E00E94B41C80E090E0AAE7B4E4898F3A
:1042E0009A8FAB8FBC8F698D7A8D8B8D9C8D20E0E2
:1042F00030E04AEF54E40E941F02DC01CB018D8BB9
:104300009E8BAF8BB88F6D897E898F89988D20E0C9
:1043100030E040E85FE30E94250488232CF481E02C
:1043200090E09C8B8B8B3FC06D897E898F89988DA7
:1043300020E03FEF4FE757E40E94C50318164CF505
:10434000698D7A8D8B8D9C8D20E030E040E251E4C8
:104350000E941F02DC01CB01BC01CD010E9449007B
:10436000DC01CB019C8B8B8B0FC088EC90E09A8B8F
:10437000898B89899A890197F1F79A8B898B8B8927
:104380009C8901979C8B8B8B8B899C89009769F703
:1043900014C06D897E898F89988D0E944900DC0147
:1043A000CB019C8B8B8B8B899C89988B8F878F857E
:1043B00098890197F1F7988B8F878DEB90E061E0FA
:1043C00041E00E94B41C8EE362E041E00E94621C66
:1043D0008DE292E00E947B249093530280935202DC
:1043E00055CF809152029091530262E04FE00E94BB
:1043F0003C1D80914C022091520230915302B90130
:104400000E94A711DECE80915002833009F0D9CEF0
:1044100080915002833009F079CE0E941418E3CDC8
:1044200080914D02813209F0DECD81E062E041E011
:104430000E94C00B87ED90E061E041E00E94B41C57
:1044400080E090E0AAE7B4E48B879C87AD87BE87C5
:104450006B857C858D859E8520E030E04AEF54E4B5
:104460000E941F02DC01CB018F839887A987BA873E
:104470006F81788589859A8520E030E040E85FE3A8
:104480000E94250488232CF481E090E09E838D8394
:104490003FC06F81788589859A8520E03FEF4FE79F
:1044A00057E40E94C50318164CF56B857C858D85F5
:1044B0009E8520E030E040E251E40E941F02DC01D2
:1044C000CB01BC01CD010E944900DC01CB019E83E0
:1044D0008D830FC088EC90E09C838B838B819C81C3
:1044E0000197F1F79C838B838D819E8101979E8339
:1044F0008D838D819E81009769F714C06F817885C7
:1045000089859A850E944900DC01CB019E838D83B9
:104510008D819E819A83898389819A810197F1F7A0
:104520009A83898380E090E0AA960FB6F894DEBF64
:104530000FBECDBFCF91DF910895DF93CF93CDB75D
:10454000DEB7AE970FB6F894DEBF0FBECDBF87E3E0
:104550008EA782ED94E09DA78CA781E00E94051BA9
:1045600082EE90E061E041E00E94B41C80E090E0C7
:10457000AAEFB3E48FA398A7A9A7BAA76FA178A5BC
:1045800089A59AA520E030E04AEF54E40E941F027A
:10459000DC01CB018BA39CA3ADA3BEA36BA17CA12B
:1045A0008DA19EA120E030E040E85FE30E94250459
:1045B00088232CF481E090E09AA389A33FC06BA1EB
:1045C0007CA18DA19EA120E03FEF4FE757E40E9420
:1045D000C50318164CF56FA178A589A59AA520E00A
:1045E00030E040E251E40E941F02DC01CB01BC013B
:1045F000CD010E944900DC01CB019AA389A30FC021
:1046000088EC90E098A38F8F8F8D98A10197F1F798
:1046100098A38F8F89A19AA101979AA389A389A1B1
:104620009AA1009769F714C06BA17CA18DA19EA1EE
:104630000E944900DC01CB019AA389A389A19AA118
:104640009E8F8D8F8D8D9E8D0197F1F79E8F8D8F13
:1046500081E00E94051B82EF90E061E041E00E9452
:10466000B41C80EC0E94051B82EF90E061E041E009
:104670000E94B41C8FE00E94051B1BA62AC18DE27C
:1046800092E00E947B2490934202809341028091A9
:1046900041029091420224E0823D920731F48CE283
:1046A0008EA78CE00E94051B18C181E00E94051BAB
:1046B0008CE00E94051B81E091E061E041E00E94F6
:1046C000B41C80E090E0A6E9B3E4898F9A8FAB8FA9
:1046D000BC8F698D7A8D8B8D9C8D20E030E04AEF08
:1046E00054E40E941F02DC01CB018D8B9E8BAF8BAB
:1046F000B88F6D897E898F89988D20E030E040E801
:104700005FE30E94250488232CF481E090E09C8BD9
:104710008B8B3FC06D897E898F89988D20E03FEF1C
:104720004FE757E40E94C50318164CF5698D7A8D42
:104730008B8D9C8D20E030E040E251E40E941F020E
:10474000DC01CB01BC01CD010E944900DC01CB01A1
:104750009C8B8B8B0FC088EC90E09A8B898B89891E
:104760009A890197F1F79A8B898B8B899C8901979C
:104770009C8B8B8B8B899C89009769F714C06D8902
:104780007E898F89988D0E944900DC01CB019C8B2A
:104790008B8B8B899C89988B8F878F8598890197C4
:1047A000F1F7988B8F8781E00E94051B82EF90E0E4
:1047B00061E041E00E94B41C80EC0E94051B8FE088
:1047C0000E94051B8BA5823009F080C08CE00E94FE
:1047D000051B81E28EA781E00E94051B87E091E026
:1047E00061E041E00E94B41C80E090E8ABE3B5E4F6
:1047F0008B879C87AD87BE876B857C858D859E85E5
:1048000020E030E04AEF54E40E941F02DC01CB01BB
:104810008F839887A987BA876F81788589859A85DC
:1048200020E030E040E85FE30E94250488232CF478
:1048300081E090E09E838D833FC06F81788589857C
:104840009A8520E03FEF4FE757E40E94C503181612
:104850004CF56B857C858D859E8520E030E040E2BF
:1048600051E40E941F02DC01CB01BC01CD010E947A
:104870004900DC01CB019E838D830FC088EC90E062
:104880009C838B838B819C810197F1F79C838B8325
:104890008D819E8101979E838D838D819E8100975E
:1048A00069F714C06F81788589859A850E944900CF
:1048B000DC01CB019E838D838D819E819A838983C8
:1048C00089819A810197F1F79A8389838BA58F5FFC
:1048D0008BA78BA5833008F4D2CE10922E021092B3
:1048E0002D028EA5AE960FB6F894DEBF0FBECDBFDB
:1048F000CF91DF910895DF93CF93CDB7DEB7679760
:104900000FB6F894DEBF0FBECDBF9F8B8E8B1B867C
:104910001A86198681E090E098878F838AE0FE01ED
:104920003C96DF01482F1D924A95E9F71E821D82B1
:104930001C820E940A1E8B878B858A3038F08B85FB
:10494000882321F08B858D3409F04DC08B858F3FF6
:1049500009F449C08B858D3481F48E8181508E831A
:104960008E81982F9F5F80E262E0492F0E94621C37
:104970008E818F530E94051BDCCF8E81282F30E063
:10498000CE010C96FC01E20FF31F8B858083EE892C
:10499000FF89808191818130910549F48E81982F22
:1049A0009F5F8AE262E0492F0E94621C18C0EE8974
:1049B000FF8980819181009791F48E81282F30E0CA
:1049C000CE010C96FC01E20FF31F8081282F30E00E
:1049D0008E81482F4F5FC90162E00E943C1D8E818D
:1049E0008F5F8E83A6CF8B858B3069F08B85863168
:1049F00051F08B85813239F08B858C3221F08B859B
:104A0000833609F096CF1B821A8246C081E08983E3
:104A100011C08F8198859C01220F331FC901880F17
:104A2000991F880F991F820F931F98878F83898101
:104A30008F5F89838981482F50E08E81282F30E055
:104A40008A819B81B901681B790BCB0148175907F3
:104A500004F32A813B81CE010C96FC01E20FF31F87
:104A60008081282F30E08F819885D901A89F9001FF
:104A7000A99F300DB89F300D112489859A85820F2A
:104A8000931F9A87898781E090E098878F838A8136
:104A90009B8101969B838A838E81282F30E08A81B7
:104AA0009B81821793070CF4B1CF8B85882F90E000
:104AB000EE89FF899183808389859A8567960FB6F1
:104AC000F894DEBF0FBECDBFCF91DF910895AA1B32
:104AD000BB1B51E107C0AA1FBB1FA617B70710F0E9
:104AE000A61BB70B881F991F5A95A9F7809590951B
:104AF000BC01CD0108952F923F924F925F926F9229
:104B00007F928F929F92AF92BF92CF92DF92EF925D
:104B1000FF920F931F93CF93DF93CDB7DEB7CA1BDE
:104B2000DB0B0FB6F894DEBF0FBECDBF09942A8809
:104B3000398848885F846E847D848C849B84AA84B1
:104B4000B984C884DF80EE80FD800C811B81AA813E
:104B5000B981CE0FD11D0FB6F894DEBF0FBECDBF09
:084B6000ED010895F894FFCF68
:104B680061686C616E0031294443204D6F746F7227
:104B780000322973746570204D6F746F720031298B
:104B8800436C6F636B003229416E746920434C6F2C
:104B9800636B003329526574003129446972656377
:104BA80074696F6E003229416E676C650032294165
:104BB8006E746920636C6F636B004F4B00456E74B5
:104BC800657220616E676C6500494E56414C4944D8
:104BD80020616E676C650052657374617274204D54
:104BE800650057656C636F6D652079612055736545
:104BF8007200456E7465722050617373776F7264CA
:104C08000057726F6E67003772616D79000000009F
:104C1800000000000000010202030303030404046F
:104C28000404040404050505050505050505050531
:104C38000505050505060606060606060606060611
:104C480006060606060606060606060606060606FC
:104C580006060606060707070707070707070707E1
:104C680007070707070707070707070707070707CC
:104C780007070707070707070707070707070707BC
:104C880007070707070707070707070707070707AC
:104C98000707070707080808080808080808080891
:104CA800080808080808080808080808080808087C
:104CB800080808080808080808080808080808086C
:104CC800080808080808080808080808080808085C
:104CD800080808080808080808080808080808084C
:104CE800080808080808080808080808080808083C
:104CF800080808080808080808080808080808082C
:104D0800080808080808080808080808080808081B
:104D1800080808080804050607000102030708092F
:104D28002C04050621010203164D00630B01000047
:00000001FF
